:020000040800F2
:10000000B8900324E504000899220108C71D0108DF
:1000100095220108A13D0008C13A01080000000036
:10002000000000000000000000000000250400089F
:10003000214300080000000081040008892D010808
:10004000FF040008FF040008FF040008FF04000884
:10005000FF040008FF040008FF040008FF04000874
:10006000FF040008FF040008FF040008A53D000885
:10007000FF040008FF040008FF040008FF04000854
:10008000FF040008FF040008FF040008B1B60008E0
:10009000FF040008FF040008FF040008FF04000834
:1000A000FF040008FF040008FF040008FF04000824
:1000B000712F0108FF040008FF040008FF04000876
:1000C000FF040008FF040008FF040008FF04000804
:1000D000FF040008FF040008FF040008FF040008F4
:1000E000FF040008FF04000800000000FF040008EF
:1000F000FF040008FF040008FF040008FF040008D4
:10010000FF040008FF040008FF040008FF040008C3
:10011000FF040008FF0400089D2F0108FF040008E9
:10012000FF040008FF040008FF040008FF040008A3
:10013000FF040008FF040008FF040008FF04000893
:1001400000000000000000000000000000000000AF
:10015000FF040008FF040008FF040008FF04000873
:10016000FF040008FF040008FF040008FF04000863
:10017000FF040008FF040008FF040008000000005E
:10018000FF040008FF040008FF040008893001088C
:10019000FF040008FF040008FF040008FF04000833
:1001A000FF040008FF040008FF040008FF04000823
:1001B000FF040008FF040008FF040008FF04000813
:1001C000FF040008FF040008FF040008FF04000803
:1001D000FF040008FF040008FF040008FF040008F3
:1001E000FF040008FF040008FF040008FF040008E3
:1001F000FF040008FF040008FF040008FF040008D3
:10020000FF040008FF040008FF040008FF040008C2
:10021000FF040008FF040008FF040008FF040008B2
:10022000FF040008FF040008FF04000800000000AD
:10023000FF040008FF04000800000000FF0400089D
:10024000FF040008FF040008FF040008FF04000882
:10025000FF040008FF040008FF040008FF04000872
:10026000FF040008FF040008FF040008FF04000862
:10027000FF040008FF040008FF040008000000005D
:10028000FF040008FF040008FF040008000000004D
:1002900000000000FF04000800F002F800F0B2F8CF
:1002A0000AA090E8000C82448344AAF10107DA45D1
:1002B00001D100F0A7F8AFF2090EBAE80F0013F071
:1002C000010F18BFFB1A43F00103184740EF01006C
:1002D00060EF01000A444FF0000C10F8013B13F0EE
:1002E000070408BF10F8014B1D1108BF10F8015B8F
:1002F000641E05D010F8016B641E01F8016BF9D182
:1003000013F0080F1EBF10F8014BAD1C0C1B09D1D8
:100310006D1E58BF01F801CBFAD505E014F8016B4A
:1003200001F8016B6D1EF9D59142D6D370470000DC
:100330000023002400250026103A28BF78C1FBD8EE
:10034000520728BF30C148BF0B6070476E2900F0CC
:10035000D584702900F05F8266291EF060816529CE
:100360001EF05D8167291EF05A8161291EF05981B6
:1003700003681B0A28BF41F08001692900F0D08181
:10038000642900F0CD81752900F0CA816F2900F041
:10039000D287782900F02B82E92900F06D87E429C3
:1003A00000F06A87F52900F06787EF2900F0CF8712
:1003B000F82900F02A820368DB0928BF41F0800198
:1003C000632900F0EE86732900F0F386E32901F03B
:1003D0001982F32901F01E82002070471FB51EF01C
:1003E00019F900F0FDFF0400002000211EF0FCF8C8
:1003F000401C6060002000211EF0E0F8E0601FBD9E
:1004000010B510BD01F0A0FA1146FFF7E7FF1BF091
:10041000BCF901F0C7FA03B4FFF7F2FF03BC01F027
:10042000FFFA00002C4B19680868B0E8F04F80F321
:100430000988BFF36F8F4FF0000080F31188704779
:100440000000000008480068006880F308884FF04A
:10045000000080F3148862B661B6BFF34F8FBFF31C
:100460006F8F00DF00BF00BF08ED00E0DFF80C0079
:10047000016841F470010160704700BF88ED00E041
:10048000EFF30980BFF36F8F134B1A681EF0100F44
:1004900008BF20ED108A20E9F04F106009B44FF03A
:1004A000500080F31188BFF34F8FBFF36F8F1CF0A4
:1004B000DFFE4FF0000080F3118809BC196808685E
:1004C000B0E8F04F1EF0100F08BFB0EC108A80F3B8
:1004D0000988BFF36F8F704738010024EFF3058060
:1004E000704700000948804709480047FEE7FEE7DB
:1004F000FEE7FEE7FEE7FEE7FEE7FEE7FEE7FEE7D4
:1005000004480549054A064B70470000752E01084E
:1005100099020008B88A0324B8900324B88C0324F5
:10052000B88C032453EA020C00F069802DE9F04BEB
:100530004FF00006002B1FBFB3FA83F503FA05F452
:1005400024FA05F65E4012BF1643B2FA82F502FAAB
:1005500005F4C5F120051EBF22FA05FC44EA0C048F
:10056000203556EA044C4FEA144418BF641C4FF07F
:1005700000084FF00009904271EB030C39D30029B9
:1005800019BFB1FA81F701FA07F6B0FA80F700FA5D
:1005900007F6C7F120071EBF20FA07FC46EA0C0643
:1005A0002037B6FBF4FCA7EB0507103F07F01F0B45
:1005B000CBF120060CFA0BFB2CFA06F644BFB3462F
:1005C0000026202FA4BF5E464FF0000B5BEA060C0E
:1005D00008BF4FF0010B19EB0B09ABFB027C48EB9A
:1005E0000608C01B06FB02CC0BFB03CC71EB0C0115
:1005F000C1E70B46024641464846BDE8F08B13B5BD
:100600004FF000004FF00001AFF30080BDE81C4048
:10061000704700007CB51D4616460C00009001D0C6
:100620002044401E074B7B442A46694601903046D1
:1006300000F08DFD05461CB10020694600F09AFDD2
:1006400028467CBD550B00000FB47CB50C0009AAF0
:10065000009001D02044401E084B7B446946019025
:10066000089800F074FD05461CB10020694600F0B2
:1006700081FD28467CBC5DF814FB0000210B0000C6
:1006800070B5044685690068C10601D5302600E0D2
:100690002026C00707D070BDD4E90121304690471D
:1006A000206A401C20626D1EF6D570BD70B50446F0
:1006B00085690078C00707D170BDD4E901212020E9
:1006C0009047206A401C20626D1EF6D570BD70B543
:1006D0000C460546012A05D02878800600D5EA692F
:1006E000002302E0012305E05B1C934202D2E05CA0
:1006F0000028F9D1A869E618C01AA861286A184428
:1007000028622846FFF7BCFF04E0D5E9012114F870
:10071000010B9047B442F8D32846FFF7C7FF70BDDE
:100720002DE9F0410646002410687529314616A5CA
:1007300010D000F078FA002802DA404213A507E052
:1007400031688A0701D512A502E0490704D511A531
:10075000012401E000F070FA00210A2206F12407CA
:1007600009E0B0FBF2FCB0FBF2F302FB1C003030FE
:1007700078541846491C0028F3D123462A463046AF
:10078000BDE8F04100F061BA000000002D0000005B
:100790002B00000020000000F0B40D460188090580
:1007A00002D5214C7C4402E01F4C7C440E340021D5
:1007B00000F1240608E002F00F071209E75D42EAA3
:1007C00003721B097754491C52EA0307F3D10278DC
:1007D0000023120704D5702D06D009B1022311346D
:1007E0002246F0BC00F031BA01231034F8E770B5AE
:1007F00004460D462146106800F01EFA02462946BE
:100800002046BDE870400023C6E7D21D22F0070352
:10081000D3E90023C0E70368126843F020030360B4
:100820000823C3610023B7E74EE101002DE9F05F23
:10083000894604464FF0000ADFF874B1FB44C0F863
:1008400020A02046E1688847002874D0252806D0DB
:10085000D4E901219047206A401C2062F1E700267C
:100860005F462046E16888472028054607DB312D92
:1008700005D2781910F8200C08B10643F1E7B0074B
:1008800001D526F00406C4F81CA00027C4F818A05F
:100890002A2D09D0284613F05EF938B304EB8708F7
:1008A000303DC8F8185019E059F8041B204604EBF5
:1008B00087029161E1688847012F054618D1E069F8
:1008C000002820DA26F020061DE0D8F8180000EBFA
:1008D000800005EB40003038C8F818002046E16879
:1008E0008847054613F037F90028EED1012F0AD0CA
:1008F0002E2D08D12046E16888477F1C0546022F2F
:1009000046F02006C4DBA069002803DA404246F026
:100910000106A061F00701D026F010066C2D0BD067
:10092000682D09D04C2D39D06A2D35D0742D35D095
:100930007A2D33D016E038E0E1682F46204688470C
:10094000B842054609D16C2F26D04FF48060E1688B
:10095000064320468847054604E06C2F1AD04FF422
:10096000807006430DB3A5F14100192802D8203547
:1009700046F400664A462946204626604E46FFF762
:10098000E5FC80B101280BD0F61D26F0070000F130
:10099000080956E74020E4E78020D8E70020D6E7A2
:1009A00006F104094DE7284652E7206ABDE8F09FAA
:1009B000DEE0010040EA010310B59B070FD1042AD5
:1009C0000DD310C808C9121F9C42F8D020BA19BA1A
:1009D000884201D9012010BD4FF0FF3010BD1AB17F
:1009E000D30703D0521C07E0002010BD10F8013BD4
:1009F00011F8014B1B1B07D110F8013B11F8014BFB
:100A00001B1B01D1921EF1D1184610BD032A40F2E2
:100A1000308010F0030C00F0158011F8013BBCF1A0
:100A2000020F624498BF11F801CB00F8013B38BFB8
:100A300011F8013BA2F1040298BF00F801CB38BFC6
:100A400000F8013B11F0030300F06780083AC0F0A2
:100A5000088051F8043B083A51F804CBA0E808108C
:100A6000F5E7121D5CBF51F8043B40F8043BAFF3BF
:100A70000080D20724BF11F8013B11F801CB48BF19
:100A800011F8012B24BF00F8013B00F801CB48BF4F
:100A900000F8012B7047431A28BF9A427FF6B6AF81
:100AA000032A1044114440F2268010F0030F1EBFA9
:100AB00011F8013D521E00F8013D10F0030F7FF4C4
:100AC000F6AF11F0030300F06084083AC0F00B8029
:100AD00051F8043D083A51F804CD40F8043D40F87F
:100AE00004CDFFF7F3BF121D5CBF51F8043D40F881
:100AF000043DAFF30080D20724BF11F8013D11F887
:100B000001CD48BF11F8012C24BF00F8013D00F8C9
:100B100001CD48BF00F8012C704710B5203AC0F055
:100B20000B80B1E81850203AA0E81850B1E81850EE
:100B3000A0E81850BFF4F5AF5FEA027C24BFB1E82B
:100B40001850A0E8185044BF18C918C0BDE810409C
:100B50005FEA827C24BF51F8043B40F8043B08BFA5
:100B60007047D20728BF31F8023B48BF11F8012B6C
:100B700028BF20F8023B48BF00F8012B704702F065
:100B8000FF0343EA032242EA024200F002B84FF0B8
:100B900000020429C0F0128010F0030C00F01B804A
:100BA000CCF1040CBCF1020F18BF00F8012BA8BF58
:100BB00020F8022BA1EB0C0100F00DB85FEAC17C1C
:100BC00024BF00F8012B00F8012B48BF00F8012BCF
:100BD00070474FF0000200B5134694469646203900
:100BE00022BFA0E80C50A0E80C50B1F12001BFF4E6
:100BF000F7AF090728BFA0E80C5048BF0CC05DF84C
:100C000004EB890028BF40F8042B08BF704748BF99
:100C100020F8022B11F0804F18BF00F8012B70470D
:100C200070477047704709684A0501D540B2704760
:100C3000C905FCD500B2704709684A0501D5C0B2A4
:100C40007047C905FCD580B270472DE9F0470D46C5
:100C500099469246044600F124080168880604D5A6
:100C6000E06921F01001216000E00120A84201DDCF
:100C7000471B00E00027A1697A1902EB0900081A56
:100C8000A0612078C00602D42046FFF7F9FC0026B8
:100C900008E0D4E901211AF806009047206A401CB8
:100CA000761C20624E45F4DB2078C0060AD520462B
:100CB000FFF7E6FC06E0D4E9012130209047206AE6
:100CC000401C2062381EA7F10107F4DC07E0D4E9DC
:100CD000012118F805009047206A401C2062281E58
:100CE000A5F10105F3DC2046FFF7E0FC20780006C3
:100CF00002D50220BDE8F0870120FBE711680268F9
:100D0000006A530501D508700AE0D30501D50880B3
:100D100006E0130603D5C217C1E9000200E008602F
:100D20000120704770472DE9FF4F0C461E464FF0DB
:100D3000FF378BB0D2E90001DDF860800A908A4667
:100D4000C1F30A5505B93D46002108464FF00000A1
:100D5000BAF1000F00F4400005DA00EB80004FF418
:100D6000400101EA50004FEA9059B9F1010F00DD4E
:100D7000B9460A9850EA4A000ED044F61050A5F23F
:100D8000FF3545432F14B8F1000F1ED07542291EC0
:100D90001EDDC9F100021CE0B8F1010F4FF00000A8
:100DA00001D0302103E0F24305E02154401CB04261
:100DB000FBDB30460022002121540B99C1F808804A
:100DC000C1E900200FB0BDE8F08FBD1B6D1CDEE750
:100DD0004A4600DA694206A800F020FD06AB93E817
:100DE000070003AB83E8070050460A9900F01FFE96
:100DF0008DE80700A0F500501F3800900398002DE3
:100E00000ADD42F21F014A460844002303A9039069
:100E1000684601F088F809E0A0F500504A461F38FE
:100E2000002303A90390684601F092F88DE80700BB
:100E30000004000C03D04FF0FF30410800E01046E2
:100E4000B8F1000F03D00022009215461EE0751E77
:100E500005D400F0C9FA303262556D1EF9D5B3469B
:100E60000122084302D000227F1C04E020783028B1
:100E700001D100227F1E002A099784D01DE0112D88
:100E800007DA00F0B1FA303262556D1C50EA010207
:100E9000F5D1084302D00098C8B10EE00021681EC9
:100EA00005E0235C625C63542254401E491C81426D
:100EB000F7DBAB46A81B401E0990002004F80B008E
:100EC0000B98099AC0F80880C0E9002B7AE7112630
:100ED0004FF0000857E72DE9F04F88460446D21D31
:100EE00022F0070191B0D1E90001CDE90A0112F029
:100EF000E9FD02460B98C00F01D02D2007E02068C5
:100F0000810701D52B2002E0202101EAC000032A3D
:100F1000099001D0072A05DB03464146204600F030
:100F200027FC0BE12078800601D5E06900E006206F
:100F3000B8F1650F814606D0B8F1660F18D0B8F148
:100F4000670F70D131E00020B9F1110F009001DB83
:100F5000112301E009F101030AAA01A90CA8FFF776
:100F6000E2FEDDE90C70002609F10105834647E049
:100F700001204B4600904FF000470AAA01A90CA897
:100F8000FFF7D1FEDDE90DB00C995D46002610B9E2
:100F900009F101000D18B9EB050003D4C0F1FF36CB
:100FA00009F10105A5EB09002BE0B9F1010F01DA08
:100FB0004FF001090020B9F1110F0090484601DD02
:100FC000112300E003460AAA01A90CA8FFF7ABFE13
:100FD000DDE90C704D4600268346207800070AD4D0
:100FE000AB4500DA5D4601A8012D04DD411911F879
:100FF000011C302907D04F4502DA17F1040F04DA3B
:10100000012082460FE06D1EEEE7002F02DCED1B93
:101010003E4403E0781CA84200DD7D1CB81B00F1B3
:10102000010A4FF000472078000703D4AA4501DBEE
:101030004FF0FF3A0021B7F1004F0DF143088DF852
:10104000431024D002202B23002F01DA7F422D23CE
:101050000A21021EA0F1010000DC5FB197FBF1FC48
:1010600097FBF1F201FB1C7C17460CF1300C08F8E1
:1010700001CDEEE7A8F1010003702188090501D533
:10108000452100E06521A0F1010800F8011C099844
:101090000FA9A1EB0807FF1D00B10120411901EBC9
:1010A000EA70A1693844081A401EA0612078C00681
:1010B00002D42046FFF7E4FA099828B1D4E90121C7
:1010C0009047206A401C20622078C00622D5204626
:1010D000FFF7D6FA1EE0002E04DBB34502DD01A8BF
:1010E000805D00E03020D4E901219047206A401C57
:1010F0002062761CAAF101005FEA000A0AD100F022
:101100006FF9C0680168405CD4E901219047206A0A
:10111000401C2062281EA5F10105DCDC07E0D4E9B3
:10112000012118F8010B9047206A401C2062381EEC
:10113000A7F10107F3DC2046FFF7B8FA032011B04E
:1011400041E6000001694A1C02610878704700B559
:101150008FB0CDE901310021059105497944CDE9F0
:10116000031011466846FFF761FB0FB000BD000099
:10117000E5FFFFFF0A6802F8010B0A607047D1E93A
:1011800000239A4202D2531C0B601070704710B5B6
:10119000436913B1AFF3008001E0FFF798FA012033
:1011A00010BD127800F124010A7000224A70012259
:1011B000EDE711684FF0FF32E9E700002DE9FF5F2E
:1011C00015468A460446DFF8AC80F8440027D8E983
:1011D00000103E46CDE9001010E03AF816106A46BD
:1011E00002A800F08DFB411C07D02178890603D5A9
:1011F000E269391891420DD80744761C20788006A0
:1012000002D5E069B84205DDAE42E6DB3AF81600E9
:101210000028E2D1A069C01BA0612046FFF730FA88
:10122000D8E90010CDE90010002017E03AF81810B6
:101230006A4602A800F064FBB0F1FF3F81460BD084
:1012400000250DF1080B05E0D4E901211BF805008C
:1012500090476D1C4D45F7D308F10100B042804620
:10126000E4DB206A384420622046FFF71FFABDE81D
:10127000FF9F000062D701002DE9F0418046D21D9A
:1012800022F007020025D2E90002F52915A614D0A4
:10129000011E72F1000106DA0023D0EB030063EBBC
:1012A000020211A608E0D8F800108B0701D50FA69E
:1012B00002E0490701D50EA601251146002408F1D8
:1012C000240704E000F090F830323A55641C50EAEC
:1012D0000102F7D12B46324621464046BDE8F04197
:1012E000FFF7B3BC000000002D0000002B00000041
:1012F0002000000030B4002100F1240408E002F0D6
:101300000705D208303542EA4372DB086554491CB0
:1013100052EA0305F3D10468002310A2250707D57C
:10132000A40600D421B1C46901230DA2641EC461C6
:1013300030BCFFF78ABC10B5044621461068FFF7A1
:101340007BFC02462046BDE810400023D2E7D21DB8
:1013500022F00701D1E90023CCE7000000000000E3
:1013600030000000431A28BF9A427FF6D6AB1044E3
:1013700010F0030F11441EBF11F8013D521E00F87A
:10138000013D10F0030F7FF4F6AF103AC0F00A8071
:1013900010B531E91850103A20E91850BFF4F9AFF0
:1013A000BDE81040530724BF31E9081020E90810B8
:1013B00044BF51F8043D40F8043D12F0030F08BF4C
:1013C0007047D20728BF31F8023D48BF11F8012C01
:1013D00028BF20F8023D48BF00F8012C70470000EC
:1013E00000487047748A032430B5B0F10A024FEA0E
:1013F000900E71F100034EEA817EB0EB0E0061EBBE
:1014000091014FEA101E4EEA017E10EB0E0041EBF7
:1014100011114FEA102E4EEA016E10EB0E0041EB57
:1014200011214FEA104E4EEA014E10EB0E0041EB37
:101430001141401841F100014FEAD00040EA4170EB
:101440004FEAD10110EB80054FEA810444EA907421
:1014500044EB01046D1944EB0404521BA3414FF00B
:10146000000348BF0A3200D530BD401C41F10001E5
:1014700030BD00002DE9F04F04460D46D21D22F08C
:10148000070089B0D0E900974846394612F01AFBA8
:101490000246F80F01D02D2307E02068810701D50F
:1014A0002B2302E0202101EAC0038DF820300BB18C
:1014B000012000E00020032A824601D0072A04DB35
:1014C0002946204600F054F93FE12078800601D4F7
:1014D0000D2500E0E569C7F30A560D2D49DA002114
:1014E0004FEA175B08464FF00000002F00F4400061
:1014F00007DA00EB80004FF4400100EBD07001EA06
:1015000060008115012901DD4FF0FF3100224FEA13
:10151000850CBCF1180F06D31346ACF118004FF040
:101520008052C24003E04FF4801323FA0CF30CF115
:101530000C0CBCF1200F04D3ACF1200C09FA0CF018
:1015400001E007FA0CF000294FF0004801DD18B95E
:101550000FE00ED140450CD319EB02095F4121B9D0
:10156000404502D19F4329EA0209BBEB175F00D037
:10157000761C2088000502D57B48784402E07A4832
:101580007844193808AA302302F80A30037C0AF19B
:101590000101002E0AF1020A53546A4602DC4FF0A0
:1015A000300101E04FF031014FF001088DF80010DB
:1015B00002D0A6F2FF3603E059EA470100D06B4E95
:1015C000002D02DC2178090704D54FF002082E21F6
:1015D0008DF80110C44600210BE0C7F303433F011F
:1015E000C35C491C6D1E02F80830052908F101088A
:1015F00001DA002DF1DC00210CE000EB1973491C2D
:101600001B786D1E082902F808304FEA091908F105
:10161000010801DA002DF0DC21688B0602D516E006
:10162000A8F10108E04505DD02EB080313F8013CD1
:10163000302BF5D0B8F1000F09DD02EB080313F8E9
:10164000013C2E2B03D1090701D4A8F10108002D7C
:1016500005DD3E2102F808106D1E08F10108407CEE
:10166000002E02F8080008F1010804DA2D20764265
:1016700002F8080002E02B2002F808000A214FF4CB
:101680007A70864208F101080BDB96FBF0F33033E9
:1016900002F8083096FBF0F308F1010800FB13662E
:1016A00001E0642E0CDB642096FBF0F3303302F88B
:1016B000083096FBF0F308F1010800FB136601E027
:1016C0000A2E06DB96FBF1F0303002F8080008F134
:1016D000010896FBF1F001FB1060303002F80800C1
:1016E000A16908F1010808EB050202EB0A00081ADB
:1016F000A0612078C00602D42046FEF7C1FF216A0F
:1017000008AE01EB0A00206204E0D4E9012116F8DA
:10171000010B9047BAF1010AF7D22078C00602D532
:101720002046FEF7ADFF6E4609E016F8010B3E2895
:101730000FD0D4E901219047206A401C2062B8F103
:101740000108F2D22046FEF7B1FF09B00320BDE840
:10175000F08F206A2844206203E0D4E90121302080
:1017600090476D1EEBD3F8E7CDD3010002FCFFFFDD
:101770002DE9F0411F46044603260168072A01F4BB
:10178000006004DB08B116A505E016A503E008B16A
:1017900015A500E015A521F010002060A069C01E6D
:1017A000A0610FB1401EA0612046FEF769FF4FB156
:1017B000D4E9012138469047206A401C2062C01CB1
:1017C000206206E0206AFAE7D4E9012115F8010B4E
:1017D0009047761EF8D22046FEF768FFBDE8F081FC
:1017E0004E414E006E616E00494E4600696E6600C5
:1017F00010B5436913B1AFF3008001E0FFF7DEFCE1
:10180000012010BD128800F1240182840022C284CC
:101810000122EDE711684FF0FF32E9E72DE9F047CB
:10182000814616468AB0354878440DC88DE80D00CB
:1018300032487844801C03AC0DC884E80D0041F6A2
:101840009B300844372190FBF1F290FBF1F5A5F1B4
:10185000800501FB12041B3C02D56442012000E01C
:101860000020DFF898A080460027FA44AAF1BE0ABB
:101870000EE0E0070AD03246684607EB4701012335
:101880000AEB810100F064FB8DE8070064107F1C07
:10189000002CEED1194F7F44AE3F19E0E80715D078
:1018A00007EB04100DF1180A90E80E008AE80E000C
:1018B000C068F04201D1981908903246012306A968
:1018C00003A800F045FB03AB83E807006D10641C20
:1018D000002DE3D14FF0010332466946B8F1000F05
:1018E00003A802D000F01FFB01E000F031FBC9E9C2
:1018F0000001C9F808200AB0BDE8F087B0D10100A6
:1019000070B516460C46054600F044F8036893F897
:101910000101012806D0FF2C0FD8185D68B1012005
:101920002C7070BDD3F807013246214603F207132D
:1019300003442846BDE8704018474FF0FF3070BDA3
:1019400000487047548A03247546FFF7F9FFAE46F6
:1019500005006946534620F00700854618B020B5BB
:10196000FEF7CEFDBDE820404FF000064FF0000727
:101970004FF000084FF0000B21F00701AC46ACE837
:10198000C009ACE8C009ACE8C009ACE8C0098D46A4
:101990007047000010B5FFF723FD001D10BD00BF0C
:1019A00049CC010010B50446AFF300802046BDE8E5
:1019B0001040FEF730BD00004FF0013C50F8042B02
:1019C00051F8043B9A4215D1A2EB0C03934313EA5E
:1019D000CC130BD150F8042B51F8043B9A4209D197
:1019E000A2EB0C03934313EACC13E7D04FF00000B3
:1019F000704700BFD01A01BAB1FA81F101F01801A5
:101A000022FA01F0CB40C1F12001DBB2C0B2C01A12
:101A10002CFA01F3D11A914311EAC311E6D17047B0
:101A200001491820ABBEFEE72600020070475FEABE
:101A3000400C08BF91F0000F4FEA8C234FEAC122FF
:101A400043EA51514FEA1C5018BF00F5F0404FEAED
:101A5000300018BF41F000415FEA6C5C00F0298063
:101A6000BCF1FF3F08BF40F080407047130C06BF39
:101A700012044FF0100C4FF0000C130E04BF1202B2
:101A80000CF1080C130F04BF12010CF1040C930F9E
:101A900004BF92000CF1020CD30F04BF52000CF1F2
:101AA000010C11464FF00002A0F11F00A0EB0C004A
:101AB000704711F0004F08BF704731F000413FF40C
:101AC000D5AF0B0C06BF09044FF0100C4FF0000C03
:101AD0000B0E04BF09020CF1080C0B0F04BF090127
:101AE0000CF1040C8B0F04BF89000CF1020CCB0F1E
:101AF00004BF49000CF1010CCCF12003A0EB0C0059
:101B000022FA03F302FA0CF241EA030100F10100A8
:101B1000704720F07F4C80EA030023F07F47ACEB56
:101B2000070303F57C5300F0004003F1FF032DE9A8
:101B300080494FEA154B09B44FEA144325EA0B4E8E
:101B400024EA03480FF2042606EB132749083E78DF
:101B50005FEA320203FB0667C7F5000707FB06F6DC
:101B60004FEA54374FEAD64606F1020607FB066CE9
:101B7000CCF1005C4FEA1C472CEA074C07FB06F44B
:101B80000CFB06F504EB15464FEA961634BF002011
:101B90004FF000404FEAD13706FB07FC4FEA1C4CE0
:101BA0000CFB0BF7D21B03FB0CF761EB07010CFBE3
:101BB0000EF7B0EB074072EB17420CFB08F734BF8F
:101BC000A2EB0742B2EB074261EB17414FEA0C442C
:101BD0004FEA910706FB07FC4FEA1C4C0CFB0BF786
:101BE000B0EBC74072EB573203FB0CF734BFA2EBEC
:101BF000C742B2EBC74261EB57310CFB0EF7B0EBBB
:101C0000C70072EB57720CFB08F734BFA2EBC70298
:101C1000B2EBC70261EB5771039F4FEA816141EA62
:101C2000921104EBCC044FEAD1374FEA826206FBF3
:101C300007FC42EA90124FEA80604FEA1C4C0CFB12
:101C40000BF7D21B03FB0CF761EB07010CFB0EF744
:101C5000B0EB074072EB17420CFB08F734BFA2EB66
:101C60000742B2EB074261EB17414FEA8C554FEA4E
:101C7000910704EB9C2406FB07FC4FEA1C4C0CFB71
:101C80000BF7B0EBC74072EB573203FB0CF734BFD6
:101C9000A2EBC742B2EBC74261EB57310CFB0EF728
:101CA000B0EBC70072EB57720CFB08F734BFA2EB26
:101CB000C702B2EBC70261EB577115EB4C254FEA37
:101CC000816141EA92114FEA82624FEAD13742EADA
:101CD000901206FB07FC44F100044FEA80604FEAD3
:101CE0001C4C0CFB0BF7D21B03FB0CF761EB070141
:101CF0000CFB0EF7B0EB074072EB17420CFB08F73A
:101D000034BFA2EB0742B2EB074261EB174115EB80
:101D10001C154FEA813141EA92414FEA823242EA90
:101D200090424FEA80304FEA0C7644F1000448EAD2
:101D300003434EEA0B484FF0000EB2EB080C71EB78
:101D4000030724BF624639464EEB0E0E4FF0000BE0
:101D50000018524149414BEB0B0BB2EB080C71EBF5
:101D600003077BF1000B24BF624639464EEB0E0E93
:101D70004FF0000B0018524149414BEB0B0BB2EBFB
:101D8000080C71EB03077BF1000B24BF6246394658
:101D90004EEB0E0E51EA020718BF46F0010616EB95
:101DA0000E7655F1000254F1000103D5BDE889011A
:101DB000BDE80088BDE88901BDE80048B619524178
:101DC00041EB0101A3F10103704780807F7E7D7CA0
:101DD0007B7A7978777676757473727171706F6EBD
:101DE0006E6D6C6C6B6A6A69686867666665646468
:101DF000636362616160605F5F5E5E5D5D5C5C5BF2
:101E00005B5A5A5959585857575656555555545460
:101E1000535352525251515050504F4F4F4E4E4DBE
:101E20004D4D4C4C4C4B4B4B4A4A4A49494948480A
:101E3000484747474746464645454544444444434A
:101E400043434342424242414141002B9C4630D4ED
:101E500077002BD01CB54FEA370703B44FF01000C2
:101E60004FF01001BAF1000F06D0BCF1000FDCBF3B
:101E700040F0080040F008014FF000000FBCBDE842
:101E800010400BF1010BBBF1010F08BF5FEA170710
:101E900022BF12F1010211F101014FF0004143F1A3
:101EA000000300F0004043EA00007047F9D35708F0
:101EB000D0E746EA064613F1400F4FEA16461FDD0B
:101EC00013F1200FDFBF16430A46002120335B4287
:101ED000BED0C3F1200746EA064602FA07F74FEAEA
:101EE000164646EA0706C3F1200722FA03F201FA72
:101EF00007F721FA03F14FF0000342EA0702A7E7D0
:101F000046EA020646EA06464FEA164646EA010651
:101F1000BCBF46EA0646360C4FF000034FF0000205
:101F20004FF0000194E72DE9804C9A46934670B437
:101F300091E8380007C831EA400C48BF34EA430C46
:101F400003D5FFF7E6FDFFF780FFF0BCBDE8008C8E
:101F50002DE9804C9A46934670B491E8380007C842
:101F600010F0804F08BF13F0804F03D100F005F848
:101F7000FFF76BFFF0BCBDE8008C20F07F4780EAE4
:101F8000030023F07F4C07EB0C03A3F57C5300F018
:101F90000040A3F1FE0392F0000F00F0B38095F033
:101FA000000F00F077802DE901494FEA11404FEA18
:101FB000144621EA004800FB06FC24EA064708FB19
:101FC00006F607FB08F800FB07F718EB06484CEB92
:101FD000164C4FEA124B18EB07484FEA15464CEBEC
:101FE000174022EA0B4E0BFB06FC25EA06470EFBC8
:101FF00006F607FB0EFE0BFB07F71EEB064E4CEB3F
:10200000164C4FF000061EEB074E4CEB174B18EB2F
:102010000B0840F1000018EB0E0B58EB000840F1E4
:1020200000008F1A4FF000013CBFC943661B14BF6C
:10203000B5EB040C00213CBFC943F61B4FEA174423
:102040004EEA8E0E27EA04454FEA1C4704FB07625E
:102050002CEA074C05FB07F70CFB05F604FB0CFC10
:1020600016EB074642EB174216EB0C4642EB1C42BE
:102070001BEB060658EB0202414146EA9E0601D5DB
:10208000BDE80189B619524141EB0101A3F10103F9
:10209000BDE801894FEA14454FEA114724EA054695
:1020A00021EA074C05FB07F406FB07F70CFB06F1DA
:1020B00005FB0CFC11EB074144EB17444FEA1247B8
:1020C00011EB0C4144EB1C4422EA074C05FB07F2E0
:1020D00006FB07F70CFB06F605FB0CFC16EB0746A8
:1020E00042EB174216EB0C4642EB1C456A1854F1C2
:1020F000000148BF7047B619524141EB0101A3F1FD
:102100000103704795F0000F37D04FEA11424FEAB4
:10211000144721EA024624EA074C02FB07F106FBBA
:1021200007F70CFB06F402FB0CFC14EB074441EB35
:1021300017414FEA154714EB0C4441EB1C4125EACB
:10214000074C02FB07F506FB07F70CFB06F602FB44
:102150000CFC16EB074645EB174516EB0C4645EB1A
:102160001C42121951F1000148BF7047B619524183
:1021700041EB0101A3F1010370474FEA14454FEA17
:10218000114724EA054621EA074C05FB07F106FB47
:1021900007F70CFB06F24FF0000605FB0CFC12EBF8
:1021A000074241EB174112EB0C4251EB1C4148BF77
:1021B0007047921841EB0101A3F101037047000041
:1021C00010B504460A460A4800EB4401087818B9DD
:1021D000012008704A7010BD4878101AC3B20BB1C4
:1021E0007F2B01D90020F6E74A700120F3E70000B9
:1021F000D300002470B504462079801EC1B204F1DA
:10220000080000F00AF805462179891E04F1080249
:102210008818294601F08BF970BD30B502460B468F
:102220004FF6FF70002117E0555C80EA052000247E
:102230000EE000F400452DB141F2210585EA40058C
:10224000A8B203E04FF6FF7505EA4000651CECB24A
:10225000082CEED34D1CE9B29942E5DB30BD70B5D8
:1022600004462179891E04F10802881801F0ECF86F
:1022700005462079801EC1B204F10800FFF7CDFFAA
:102280000646B54201D1012070BD0020FCE70000E8
:10229000F0B58DB004463248007808B90DB0F0BDF5
:1022A00004A800F06BF8074601A800F099F806466C
:1022B00010F056FA28B100202A4908702A490870FF
:1022C00025E00FB30C98251A142D01D3012000E04E
:1022D0000020244908700846007888B12248007818
:1022E000A8B92248007840F003002049087020482F
:1022F000C06A401C1E49C86201201B49087006E0E4
:1023000000201949087002E001201649087016B330
:102310000398251AB5F5967F01D2012000E0002030
:10232000144908700846007888B913480078A8B99D
:102330000E48007840F003000C4908700C48006B10
:10234000401C0B49086301200B49087006E000207F
:102350000949087002E000200649087000BF9DE7A7
:10236000AC000024B5000024B8000024B70000240D
:10237000183C0324B6000024B900002470B50446BC
:1023800014B11448007808B9002070BD11F0DAFBD0
:10239000054672B600BF00BF00BFBFF35F8F00BF2E
:1023A00000BF00BF0C48007800EBC0000B4A02EBF6
:1023B000800124222046FEF7B0FB00BF00BF00BF13
:1023C000BFF35F8F00BF00BF00BF284611F0C0FB06
:1023D0000120DAE7B1000024AD000024443B0324CF
:1023E00070B5044614B11448007808B9002070BDD7
:1023F00011F0A8FB054672B600BF00BF00BFBFF3D7
:102400005F8F00BF00BF00BF0C48007800EB4000AA
:102410000B4901EB800207CA84E8070000BF00BF38
:1024200000BFBFF35F8F00BF00BF00BF284611F0A1
:102430008FFB0120DBE70000B4000024B000002483
:10244000D43B03240148007870470000B700002403
:102450001CB510F077F948213A48FEF7BAFB202165
:102460003948FEF7B6FB28213848FEF7B2FB1821A1
:102470003748FEF7AEFB374800210160416000F0AD
:10248000F5FF002034490870344908703449087059
:102490003449087034490870344908703449087068
:1024A000344908700120344908700020334908700D
:1024B000334908703349087033490870334908704C
:1024C000334908603349086033490860334908607C
:1024D000334908703349087033490870334908702C
:1024E000334908701C213348FEF773FB0020324942
:1024F000087032480021016041608160C1600020A5
:102500002F4908702F4908704FF4C070009040F2B6
:10251000FC700190684601F00BF90446022C00D1D2
:102520001CBD0CB10320FBE701F0CCFA0446022CE1
:1025300000D1F5E70CB10320F2E701202149087032
:102540000020EDE7443B03248C3B0324AC3B0324F5
:10255000D43B0324D3000024AD000024AE000024AB
:10256000AF000024B0000024B1000024B200002419
:10257000B3000024B4000024B5000024B6000024F9
:10258000B7000024B8000024B9000024BA000024D9
:10259000BC000024C0000024C4000024C8000024A3
:1025A000CC000024CD000024CE000024CF00002465
:1025B000D0000024EC3B0324D1000024083C032479
:1025C000D2000024AC0000240148007870470000CD
:1025D000B50000240148007870470000B6000024D0
:1025E00070B505460E4625B11EB1687800F0C000F2
:1025F00008B1012070BD402240F20121304600F0B8
:1026000097FB2878307269787172002431E02A1DB6
:1026100052F82410022202EB840306F108029818F3
:1026200000F089FF05F11C0232F8142091B21A2241
:1026300002EB440306F10802981800F078FF05F158
:10264000280232F81410262202EB440306F1080295
:10265000981800F06CFF05F1340232F814103222A1
:1026600002EB440306F10802981800F060FF601CBA
:10267000C4B2062CCBD33046FFF7BCFD0020B9E72F
:1026800070B505460C4625B11CB1A87800F0F800DD
:1026900008B1012070BD082240F20321204600F05D
:1026A00047FB28782072022161726978A172A978AB
:1026B000E172A98804F10C0000F039FF2046FFF711
:1026C00099FD0020E6E770B504460D464CB145B1D2
:1026D0006078032805DCA078062804D3A078FF28BA
:1026E00001D0012070BD102240F20221284600F0E6
:1026F0001FFB2078287261786972A178A972E1784D
:10270000E972A18805F10C0000F011FFE18805F1E4
:102710000E0000F00CFF05F11000A16800F00BFFA7
:10272000A18905F1140000F002FF2846FFF762FDC1
:102730000020D7E770B504460D4644B13DB160783E
:1027400000F0C00018B9E07800F0800008B1012066
:1027500070BD20221101284600F0EAFA2078287284
:1027600061786972A178A972E178E97200260CE0BB
:10277000221D52F82610042202EB860305F10802FE
:10278000981800F0D8FE701CC6B2062EF0D3A18BAC
:1027900005F1240000F0CBFE2846FFF72BFD0020BA
:1027A000D6E770B504460D46ACB1A5B160780328F4
:1027B00011D8A07A0C280ED8E07A0D280BD8E07832
:1027C00048B1A078E178884205DC207B18B1207BF5
:1027D000E178884201DD012070BD20224FF40171B3
:1027E000284600F0A5FA20782872022169726178E3
:1027F000A972A178E972E178297321796973617905
:10280000A973A179E973E1792974217A6974617AEC
:10281000A974A17AE974E17A2975217B6975E18946
:1028200005F1160000F083FE218A05F1180000F082
:102830007EFE618A05F11A0000F079FEA18A05F199
:102840001C0000F074FEE18A05F11E0000F06FFE2E
:10285000218B05F1200000F06AFE618B05F122005A
:1028600000F065FEA18B05F1240000F060FE284613
:10287000FFF7C0FC0020AFE770B592B004462421FA
:1028800009A8FEF7A6F9207A8DF82400607A8DF861
:102890002500A07A8DF82600E07A8DF827009DF8B3
:1028A00025003F2808D09DF824000422012110F0C3
:1028B0003DF8012012B070BD9DF8260001280FD010
:1028C0009DF8260002280BD09DF82600052807D089
:1028D0009DF824000522012110F028F80120E9E7E5
:1028E0009DF82700082807D09DF824000622012122
:1028F00010F01CF80120DDE79DF8260002280FD11A
:10290000012010F049F80CF0DDFA119009A800F050
:102910000BFD46484068401C444948600020C9E718
:1029200000250CE0042101EB850204F10801501898
:1029300000F084FD0AA941F82500681CC5B2062DE7
:10294000F0D304F1240000F07FFDADF84000BDF8A5
:10295000400038B99DF82400072201210FF0E6FF5E
:102960000120A7E70CF0AEFA11909DF824008DF835
:10297000000018220AA901A8FEF7CFF8BDF8400010
:10298000ADF81C00119808909DF82600052815D177
:10299000684610F02BF838B99DF824000C2201216C
:1029A0000FF0C4FF012085E709A800F0BDFC1F4817
:1029B0004068401C1D49486000207BE768460FF0D6
:1029C000EBFE0646052E1DD2DFE806F0031D040CC3
:1029D000140020E09DF82400082201210FF0A6FF3A
:1029E000012067E79DF82400092201210FF09EFFD6
:1029F00002205FE79DF824000A2201210FF096FFD4
:102A0000012057E700BF9DF824000C2201210FF0A0
:102A10008DFF01204EE700BF09A800F085FC0348A8
:102A20004068401C01494860002043E7183C0324EB
:102A300070B50446E07918B9607908B1A07970B929
:102A400044488069401C434988612068B0F5C07FD4
:102A500004D10122002108460FF068FF70BD2068F4
:102A6000B0F5C07F07D0A0F2811030B1012806D0A8
:102A7000022808D105E020260BE0102609E01026E8
:102A800007E0082605E033484069401C31494861A9
:102A9000E4E700BF2079B0420ED02E48C069401C48
:102AA0002C49C8612068B0F5C07F04D10222002102
:102AB00008460FF03BFFD1E72046FFF7D0FB70B987
:102AC0002448006A401C234908622068B0F5C07F92
:102AD00004D10322002108460FF028FFBEE720683A
:102AE000B0F5C07F02D1207A0FF0FCFE2068B0F56F
:102AF000C07F07D0A0F2811048B101280CD0022875
:102B000014D10EE02046FFF7B7FE05460FE0204641
:102B100000F054F805460AE0204600F0BDF80546EE
:102B200005E0204600F018F8054600E096E700BFF3
:102B3000012D05D10748806A401C0649886206E0DD
:102B4000022D04D10348406A401C0249486200BF7C
:102B500084E70000183C03243EB50446207A8DF833
:102B60000000607A8DF80100A07A8DF80200E07A0A
:102B70008DF803009DF80100022801D001203EBD20
:102B800004F10C0000F060FCADF804009DF80010AA
:102B90000320FFF715FB08B90220F0E70CF092F9CB
:102BA0000290684600F0E4FB03480069401C0249BB
:102BB00008610020E3E70000183C03247FB50446C9
:102BC000207A8DF80000607A8DF80100A07A8DF8E7
:102BD0000200E07A8DF803009DF8010004280CDC67
:102BE0009DF8020048B19DF8020000F0C00020B935
:102BF00004F1140000F028FC10B1012004B070BDF5
:102C000004F10C0000F026FC019004F1100000F02B
:102C100021FC02909DF80100032823D10FF0BCFE97
:102C200010F090FF054672B61948007840F0030096
:102C30001749087000BF00BF00BFBFF35F8F00BF20
:102C400000BF00BF284610F083FF0CF03BF9039053
:102C5000684600F0AFFB0F488068401C0D49886053
:102C60000020CBE79DF800100120FFF7A9FA08B972
:102C70000220C3E70CF026F90390684600F09AFBA7
:102C800004488068401C034988600020B6E70000C3
:102C9000B7000024183C032410B586B00446207AFF
:102CA0008DF80400607A8DF80500A07A8DF8060092
:102CB000E07A8DF807009DF8050001280CDC9DF8EE
:102CC0000600062803D39DF80600FF2804D104F16E
:102CD0000E0000F0B9FB10B1012006B010BD04F1E8
:102CE0000C0000F0B1FBADF8080004F1100000F09A
:102CF000A5FB039004F1140000F0A6FBADF8100052
:102D00009DF804100220FFF75BFA08B90220E4E7FF
:102D10000CF0D8F8059001A800F06CFB0348C068DF
:102D2000401C0249C8600020D7E70000183C03247B
:102D300070B504460E46154648212046FDF749FF6A
:102D40002660257101206071A0710020E07170BDC6
:102D500000B593B00A48007808B913B000BD07E089
:102D600008480068401C0749086001A8FFF760FE9A
:102D700001A800F0E9FE0028F2D100BFEDE7000055
:102D8000AC000024183C03242DE9F04FADF5017D83
:102D90000546002005900290FB48007818B90DF513
:102DA000017DBDE8F08FF948007888B9A81EF84980
:102DB00008600838F7490860A81EF74908606238BB
:102DC000F64908600020F64908700120EF490870B4
:102DD00088215FA8FDF7FDFE202157A8FDF7F9FE29
:102DE000402147A8FDF7F5FE34213AA8FDF7F1FE92
:102DF000202132A8FDF7EDFE482108A8FDF7E9FEE5
:102E00000020309031905FA801F0C6FD074617B151
:102E10009DF8FA0101E001F059FE834627B19DF8C3
:102E2000020200F067FB00E000208DF85D018DF8E4
:102E30005EB117B17F9880B200E00020ADF8780154
:102E40009DF85D018DF81D018DF8C1B017B19DF899
:102E5000030200E000208DF8C20017B1BDF80002A7
:102E600000E00020ADF8C400BBF10B0F05D19DF8C8
:102E70005F0140F001008DF85F01FFF7A5FB28B16D
:102E80009DF85F0140F004008DF85F01FFF7DAFA6A
:102E9000804608F0020028B19DF85F0140F008006C
:102EA0008DF85F013AA80FF0B9FB0490049810B3B5
:102EB0009DF8E80030B101280AD002280DD003287F
:102EC00017D110E000208DF8C9000120029011E018
:102ED00001208DF8C90002900CE002208DF8C90095
:102EE0000120029006E003208DF8C9000120029025
:102EF00000E000BF00BF029800287CD0A9480078FD
:102F00008DF8C8009DF8EC008DF8CA000F208DF8F0
:102F1000CB0008208DF8D4009DF8E90028B19DF879
:102F2000CC0040F001008DF8CC009DF8EA0048B1DB
:102F30009DF8CC0040F002008DF8CC009DF8EB002D
:102F40008DF8D0009DF8ED0048B19DF8CC0040F020
:102F500004008DF8CC009DF8EE008DF8CD009DF8B2
:102F6000EF0048B19DF8CC0040F008008DF8CC008F
:102F70009DF8F0008DF8CE009DF8F10048B19DF865
:102F8000CC0040F010008DF8CC009DF8F2008DF8D8
:102F9000CF009DF8F30048B19DF8CC0040F0200030
:102FA0008DF8CC009DF8F4008DF8D10008F00100F8
:102FB00028B19DF8CC0040F040008DF8CC0008F01E
:102FC000020028B19DF8CC0040F080008DF8CC00C4
:102FD0009DF8F5008DF8D2009DF8F6008DF8D3002D
:102FE0003E9880B2ADF8D6003F9880B2ADF8D800D8
:102FF000409880B200E01CE0ADF8DA00419880B261
:10300000ADF8DC00429880B2ADF8DE00439880B2A3
:10301000ADF8E000459880B2ADF8E200469880B285
:10302000ADF8E40008A932A8FFF7BBFB08B1002007
:103030000290002F73D000246FE020460FF092FA28
:103040008146B9F1000F00D165E099F80000401EFB
:10305000C0B206900698C0EBC00000EB40005FA92C
:1030600001EB400699F80200012814D1716858A8B4
:1030700040F82410B16848A840F8241071884EA880
:1030800020F81410318851A820F81410B18954A8E0
:1030900020F8141015E01536716858A840F824106F
:1030A000B16848A840F8241071884EA820F8141080
:1030B000318851A820F81410B189153E54A820F881
:1030C000141051A810F8140000F06F00272805D143
:1030D0000120A040C0B205990843059051A810F8FE
:1030E000140000F0800028B19DF85F0140F010004E
:1030F0008DF85F0151A810F8140000F0080018B90D
:1031000054A830F8140028B19DF85F0140F0200069
:103110008DF85F0100BF601CC4B2062C8DD39DF8F2
:103120005D013F2808D105983F2805D19DF85F0132
:1031300040F002008DF85F0115480068281A022847
:1031400014D3194800788DF85C011AA957A8FFF725
:10315000F1FA58B915491AA800F0AEF930B1124881
:103160000078401C1049087009480560029898B31F
:103170000B48007830B11C220D490DF12A00FDF7F3
:1031800019FCB8B1012016E0AC000024BA000024FC
:10319000BC000024C0000024C4000024C800002497
:1031A000D1000024CE000024CC000024503C032495
:1031B000EC3B032400200190019810B14FF0020A6B
:1031C0000DE09DF8C900012803D09DF8C900022830
:1031D00003D14FF0020A02E01BE04FF0140A464808
:1031E0000068281A504514D3444908A800F064F92F
:1031F00078B143480078401C414908703E4805605A
:103200001C220DF12A013F48FDF700FC01203E4938
:1032100008703E480068281A0A2815D33C480078F0
:103220008DF81C011AA947A8FFF7DAF960B93349EC
:10323000091F1AA800F040F930B135480078401C49
:10324000334908703148056010F07CFC079072B675
:10325000304800780390304BD3E90020D3E90213C3
:10326000CDE92E13CDE92C20079810F071FC0398BE
:1032700028B32A4800788DF8B0001AA92CA8FFF7C7
:1032800022FAE0B91D49091D1AA800F015F9B0B1DC
:1032900010F058FC079072B600201E49087000BF5D
:1032A00000BF00BFBFF35F8F00BF00BF00BF079824
:1032B00010F04EFC19480078401C18490870184856
:1032C0000068281A642815D3164800788DF8C000C5
:1032D0001AA930A8FFF7D4F960B9084908311AA82B
:1032E00000F0EAF830B10F480078401C0D49087032
:1032F0000B48056000BF52E5C4000024583C03247D
:10330000CE000024EC3B0324D1000024C0000024A4
:10331000CD000024D2000024083C0324CF00002468
:10332000C8000024D000002470B504460D48007881
:1033300080F0010505EBC5010B4A02EB8100242258
:103340002146FDF7EAFB00BF00BF00BFBFF35F8F60
:1033500000BF00BF00BF034805700120034908708B
:1033600070BD0000AD000024443B0324B1000024E4
:1033700030B501460C4A127882F0010000EB4002A1
:103380000A4B03EB820291E8380038C200BF00BF4D
:1033900000BFBFF35F8F00BF00BF00BF024A1070C5
:1033A0000122034B1A7030BDB0000024D43B03242B
:1033B000B400002470B50C4A127882F001010B4A67
:1033C00002EB011290E8780078C200BF00BF00BF96
:1033D000BFF35F8F00BF00BF00BF034A117001221F
:1033E000034B1A7070BD0000AE0000248C3B032418
:1033F000B200002470B504460D48007880F0010545
:1034000005EB85010B4A02EB810014222146FDF7F2
:1034100084FB00BF00BF00BFBFF35F8F00BF00BFD2
:1034200000BF0348057001200349087070BD00000B
:10343000AF000024AC3B0324B300002410B50446C5
:10344000204600F007F810BD014608784A7840EAA7
:1034500002207047014608784A7840EA02208A78BC
:1034600040EA0240CA7840EA0260704710B596B060
:1034700058216846FDF7ADFB10F064FB044672B6B8
:1034800000BF00BF00BFBFF35F8F00BF00BF00BF22
:10349000582269460748FDF740FB00BF00BF00BF48
:1034A000BFF35F8F00BF00BF00BF204610F050FB8E
:1034B00016B010BD183C032470B506460C463046C5
:1034C00000F074FA054625B92068401C20600120F0
:1034D00070BD032D05D10648C06C401C0449C8646A
:1034E00004E00348006D401C014908650020EFE737
:1034F000183C03242DE9F04106460027002411E082
:1035000020460FF02FF8054655B12878401E0121BE
:1035100001FA00F0304018B10120A040C0B20743CA
:10352000601CC4B2062CEBD33846BDE8F0810170B4
:103530000A124270704701700A0A42700A0C8270C7
:103540000A0EC2707047000010B51A48006820B11A
:103550001948006808B1012010BD1648006810B96C
:103560001548006808B10020F6E7144A4FF4C1710D
:10357000102018F0C9F90F4908600846006808B91A
:103580000020E9E70E4A0021012018F083FA0A49D9
:1035900008600846006838B90648006818F05EF907
:1035A000002004490860D7E7002006490870012080
:1035B000D2E700003000002434000024DCE60108DB
:1035C000F4E601082C00002410B5E2B0274800689A
:1035D00010B12748006808B962B010BD4FF0FF3342
:1035E000002201A92148006818F04EF900B1F3E764
:1035F000BDF8040020B1BDF80400B0F5C07F00D9CB
:10360000EAE700BF00211A48006818F00DFA002808
:10361000F8D000201749087000BF00BF00BFBFF3FB
:103620005F8F00BF00BF00BFBDF804200DF1060191
:1036300011480EF06DFB00B1CEE764210C48006824
:1036400018F0F2F9044600BF00BF00BFBFF35F8F60
:1036500000BF00BF00BF1CB906480078012802D097
:1036600005480DF0DFFF00BFB6E700003000002482
:10367000340000242C000024C80C002410B50120C4
:103680000849087000BF00BF00BFBFF35F8F00BFD5
:1036900000BF00BF0448006818B10348006818F074
:1036A0005FFA10BD2C0000243400002410B5022065
:1036B0000849087000BF00BF00BFBFF35F8F00BFA5
:1036C00000BF00BF0448006818B10348006818F044
:1036D00047FA10BD2C0000243400002430B5E1B0BE
:1036E00005460C464FF4C2716846FDF772FA0F4862
:1036F000006820B11DB114B1B4F5C07F02D900201B
:1037000061B030BDADF80040224629460DF10200FF
:10371000FDF77CF900231A4669460448006818F052
:1037200041F908B10020EBE70120E9E7300000246F
:1037300010B58AB00446202102A8FDF74AFA14B950
:1037400001200AB010BD2068B0F5006F03D2606898
:10375000B0F5006F01D30120F3E71C4890F8980002
:10376000012801D00220ECE70020194908700290DE
:103770000390022004900120059020680690606864
:10378000079002A911480AF090FB08B10420D8E77D
:10379000012003460222114600900C480AF0D9FB92
:1037A00008B10420CDE700200A4908600A490860F2
:1037B00000F0A4F800200949086009490870094987
:1037C00008600120024908700020BAE7B00B00240D
:1037D0000001002404010024080100240C0100243D
:1037E000100100241401002402460B4600210AE0C7
:1037F0000748405C904205D1064850F82100186007
:1038000001207047491C1029F2D30020F9E700007D
:10381000F4E7010804E8010810B51D48007800B974
:1038200010BD0BF04FFB04461A480068201A6428AC
:1038300000D2F5E7184890F8980002280ED11648F3
:103840000BF0BBF950B1144800F02AF81348406C53
:10385000401C124948640F480460E1E70E4890F8A4
:103860009800012802D100F02DF938B10B48406CC6
:10387000401C0A49486407480460D1E70748006CC7
:10388000401C0649086400200149087000BFC7E7D2
:103890001001002414010024B00B0024F040032484
:1038A00070B5064630460AF0DFFB05461148006851
:1038B00025EA000404B970BD0F48806B401C0E4916
:1038C00088630846C56304F0006018B10846006BC1
:1038D000401C086304F0805020B10748406B401C36
:1038E000054948630348006820430249086000BF57
:1038F000E1E700000C010024F040032410B592B071
:1039000048216846FDF765F900BFEFF310800446D3
:1039100072B600BF00BF00BFBFF35F8F00BF00BF24
:1039200000BF482269460848FDF7F7F800BF00BF0E
:1039300000BFBFF35F8F00BF00BF00BF00BF84F3B5
:10394000108800BF12B010BDF040032470B50546CA
:103950001248046812480068201A102806D311483B
:103960000069401C0F490861002070BD04F00F0180
:1039700001EBC1010C4A02EBC10048222946FDF7C8
:10398000CCF800BF00BF00BFBFF35F8F00BF00BF18
:1039900000BF601C014908600120E6E70401002423
:1039A00008010024F0400324703C032410B58AB0C1
:1039B0000446242101A8FDF70CF93E484069401C4B
:1039C0003C49486154B16079012807D8A0790128A1
:1039D00004D820796946FFF707FF10B901200AB023
:1039E00010BD607930B92079082801D8A07908B1D4
:1039F0000120F4E7E07918B92068B0F5006F0BD228
:103A0000E079012803D12068B0F1005F04D2E079A9
:103A100020B1E079012801D00120E0E726480078B4
:103A200038B12648007820B9254890F89800022837
:103A300001D00220D3E722480AF04AFC30B91D48E1
:103A4000006A401C1B4908620320C8E720680190F7
:103A5000E079012801D1800700E0002002900020D9
:103A600003900098049000200590A07910B14FF4C5
:103A7000801000E000200690607910B14FF4001033
:103A800000E00020079000200890099004F108024F
:103A900001A90B480AF0C0F920B10948FFF700FF5F
:103AA00004209CE703488069401C0249886100208B
:103AB00095E70000F04003240001002410010024D9
:103AC000B00B002410B51B48007820B11A4890F8BC
:103AD0009800012801D0022010BD1748406A1649FD
:103AE000C96A00FB01F47F2C01D90420F4E700220D
:103AF000214611480AF047FA08B10420ECE70E48C5
:103B00000AF055FA08B10420E6E7FF220B490A48FB
:103B10000AF02EF908B10420DEE707480BF033F86D
:103B200008B10420D8E7002005490860054908705D
:103B300000BFD1E700010024B00B00240D02821B5E
:103B40000C0100241001002470B505460DB90020B9
:103B500070BD1448046814480068844201D10020F4
:103B6000F6E700BF00BF00BFBFF35F8F00BF00BF1D
:103B700000BF04F00F0000EBC0000C4A02EBC001D4
:103B800048222846FCF7C9FF00BF00BF00BFBFF3B3
:103B90005F8F00BF00BF00BF601C024908600120AA
:103BA000D6E700000801002404010024703C03242F
:103BB00010B50446064A02EBC4029188044A52F842
:103BC00034000BF06BF908B9012010BD0020FCE7B0
:103BD00044E8010870B5002413E0E0B2FFF7E8FF05
:103BE00005460B4800F8245000EB84004570002087
:103BF000074901EB84018870054901EB8401C87015
:103C0000641C022CE9D30BF05DF90249086070BD19
:103C100018010024200100242DE9F0410BF052F995
:103C2000074618480068381A022801D2BDE8F0811A
:103C300014480760002521E0134800EB8504E8B232
:103C4000FFF7B6FF06466078B04203D066700120E9
:103C5000A07005E0A0780A2802D2A078401CA070CD
:103C6000A0780A2809D320786178884205D0607846
:103C700020702078012800D1E0706D1C022DDBD36C
:103C800000BFD3E7200100241801002470B50446CA
:103C900000F01EF805460E4600E000BF00F018F8E0
:103CA000421B61EB0601121B71F10001F5D370BDDF
:103CB00010B58AB001A902A80CF0ECFC0CF046FD8E
:103CC0000446079810B920460AB010BD6000FBE713
:103CD00010B500BF0D4802684FF08040436A0B48A2
:103CE0000468A242F6D14FF08040006900F0010064
:103CF00030B14FF08040436AB3F1004F00D2521C04
:103D0000002001461843114310BD0000FC000024B0
:103D100038B500BF1F48006840F001001D49086029
:103D20000846006800F00100009000BF00BF1C20A2
:103D30000BF072F900204FF080410860C860FFF777
:103D4000B7FF04461448844200D204461248B4FB2C
:103D5000F0F0451E0020114908604FF08040856258
:103D60004FF0FF304FF08041C862002048620120D0
:103D70004861002008610120C86000220F211C203A
:103D80000BF080F91C200BF069F901208107086015
:103D900038BD0000E844025840420F00FC000024F7
:103DA00000BFFEE710B5024808F040FA10BD000061
:103DB000500C00240146374A0868904249D0354AE1
:103DC00018320868904244D0324A30320868904233
:103DD0003FD0304A4832086890423AD02D4A60328B
:103DE0000868904235D02B4A78320868904230D02B
:103DF000284A9032086890422BD0264AA832086898
:103E0000904226D0244A0868904222D0224A183292
:103E1000086890421DD0204A30320868904218D07D
:103E20001D4A48320868904213D01B4A6032086825
:103E300090420ED0184A78320868904209D0164A4B
:103E400090320868904204D0134AA8320868904221
:103E500001D1012000E00020B0B10A78103A182307
:103E6000B2FBF3F000F007020C4B9A5CCA65032822
:103E700005D90A686FF30902121D8A6503E00A6812
:103E80006FF309028A6503E0086820F0FF00886587
:103E9000886D7047100002401004024054E8010889
:103EA00010B502682B4C0368A34222D0294C14346D
:103EB0000368A3421DD0274C28340368A34218D0BE
:103EC000244C3C340368A34213D0224C5034036882
:103ED000A3420ED01F4C64340368A34209D01D4C8A
:103EE00078340368A34204D01A4C8C340368A3428C
:103EF00001D1012300E000238BB10378083B142497
:103F0000B3FBF4F1144B03EB81030366124B8033D4
:103F1000436601F01F040123A340836618E0037881
:103F2000103B1824B3FBF4F10C4B9A4204D80B4B12
:103F3000A83B9A4200D30831094B03EB8103036687
:103F4000074B8033436601F01F040123A3408366BF
:103F500010BD00000854025800580258B80402402E
:103F6000000802400179A9B3082940D8204B026813
:103F70009A4222D01E4B143302689A421DD01C4B29
:103F8000283302689A4218D0194B3C3302689A428F
:103F900013D0174B503302689A420ED0144B64333F
:103FA00002689A4209D0124B783302689A4204D0D0
:103FB0000F4B8C3302689A4201D1012200E00022AB
:103FC0004AB14A1E0B4B03EB8202C266094A4032D9
:103FD000026708E00BE04A1E074B03EB8202C26651
:103FE000054A403202674A1E0123934043677047E7
:103FF00008540258005902580009024001460020A6
:104000008A69D2B98A6A32B1012A0DD0022A03D054
:10401000032A10D10EE000BFCA6A02F08072B2F12A
:10402000807F00D1012007E0CA6AB2F1C07F00D1D1
:10403000012001E000E000BF36E08A69B2F5005FD0
:104040001BD18A6A32B1012A07D0022A03D0032A7F
:1040500011D10AE000BF01200EE0CA6A02F08072AE
:10406000B2F1807F00D1012006E0CA6AB2F1C07FC0
:1040700000D1012000E000BF16E08A6A32B1012AB7
:1040800005D0022A04D0032A0CD103E000BF00BFF0
:10409000012008E0CA6A02F08072B2F1807F00D18C
:1040A000012000E000BF00BF70470000F0B5856D43
:1040B000846D984F0668BE4270D0964F18370668D8
:1040C000BE426BD0934F30370668BE4266D0914FE8
:1040D00048370668BE4261D08E4F60370668BE42E0
:1040E0005CD08C4F78370668BE4257D0894F9037E6
:1040F0000668BE4252D0874FA8370668BE424DD0F0
:10410000854F0668BE4249D0834F18370668BE42C5
:1041100044D0814F30370668BE423FD07E4F48378B
:104120000668BE423AD07C4F60370668BE4235D042
:10413000794F78370668BE4230D0774F903706689F
:10414000BE422BD0744FA8370668BE4226D0734FAC
:104150000668BE4222D0714F14370668BE421DD099
:104160006E4F28370668BE4218D06C4F3C37066841
:10417000BE4213D0694F50370668BE420ED0674F1B
:1041800064370668BE4209D0644F78370668BE427D
:1041900004D0624F8C370668BE4201D1012600E090
:1041A00000263EB1D0E919767E60C66E16B1D0E920
:1041B0001C767E60574F0668BE4249D0554F18376F
:1041C0000668BE4244D0534F30370668BE423FD0E7
:1041D000504F48370668BE423AD04E4F60370668A7
:1041E000BE4235D04B4F78370668BE4230D0494F7B
:1041F00090370668BE422BD0464FA8370668BE42AD
:1042000026D0454F0668BE4222D0434F1837066875
:10421000BE421DD0404F30370668BE4218D03E4FD8
:1042200048370668BE4213D03B4F60370668BE422F
:104230000ED0394F78370668BE4209D0364F9037D6
:104240000668BE4204D0344FA8370668BE4201D18A
:10425000012600E00026DEB190F85C6006F01F0742
:104260003F26BE40AE600668366826F480260768A2
:104270003E60066873608668402E04D10668B260AE
:104280000668F16044E00668B1600668F2603FE0ED
:10429000224F0668BE4222D0204F14370668BE4225
:1042A0001DD01E4F28370668BE4218D01B4F3C3722
:1042B0000668BE4213D0194F50370668BE420ED072
:1042C000164F64370668BE4209D0144F7837066827
:1042D000BE4204D0114F8C370668BE4201D1012680
:1042E00000E00026A6B190F85C6006F01F070126EA
:1042F000BE406660066873608668402E04D106681A
:10430000B2600668F16003E00668B1600668F260BA
:10431000F0BD000010000240100402400854025892
:104320007047000070B5002500260FF002FC04461F
:1043300072B6174890F85B0B68B1154890F85A0BA5
:1043400048B90126124890F8580B20B100211048B6
:1043500080F8581B012504B962B606B970BD15B1C5
:104360000C4810F013FB0C4805F0E4FC0B4801F07E
:1043700034FB0B4800F0DCFA0FF0DBFB044672B6AE
:104380000021034880F85B1B04B962B600BFE5E773
:104390006806032468260024CC1103242813032470
:1043A000F80E0324F8B504460D46074890F88868CF
:1043B00080F888482346324604A100F698200095EC
:1043C00000F01EFCF8BD0000680603245B534F4557
:1043D0004D5D206170702073746174652025752DAA
:1043E0003E2575206576656E743D25750D0A0000C5
:1043F000014601F04F0008B916A0704701F04F00C8
:10440000402801D116A0F8E701F06F00212801D162
:1044100018A0F2E701F06F00232801D11AA0ECE701
:1044200001F06F00272801D11AA0E6E701F06F0024
:10443000072801D11CA0E0E701F04F000F2801D1AF
:104440001EA0DAE701F04F00082801D121A0D4E72F
:1044500022A0D2E74E6F742072656164790000007B
:10446000537769746368206F6E2064697361626C4E
:1044700065640000526561647920746F2073776908
:10448000746368206F6E00005377697463686564B5
:10449000206F6E004F7065726174696F6E20656E7B
:1044A00061626C6564000000517569636B20737410
:1044B0006F70206163746976650000004661756CF9
:1044C00074207265616374696F6E206163746976CC
:1044D000650000004661756C74000000556E6B6EDF
:1044E0006F776E002DE9FF4107460E46144634F8FB
:1044F000155F2846FFF77CFF8046A08994F90E10CF
:104500002B463246CDE9008102901749384600F02B
:1045100077FBB4F90200A168CDE900106368324668
:104520001249384600F06CFBD4F811000090B4F941
:104530000F30153C32460EA1384600F061FBC5F342
:10454000C010C5F3C001C5F38002C5F34003CDE937
:104550000032CDE9021005F0010332461349384616
:1045600000F04EFBBDE8FF819CEA010834EB010836
:104570005B534F454D5D20736C6176652575204119
:10458000786973322030783339353420616363655C
:104590006C3D256420307836393634206D756C7466
:1045A000695F706F733D256C640D0A00C8EB0108EC
:1045B0002DE9F84380460E4615461F46DDF820904B
:1045C00035B932460EA1404600F01AFBBDE8F8832B
:1045D0003B46324614A14046CDF8009000F010FB57
:1045E000002408E0285D234632461BA10090404687
:1045F00000F006FB641CBC42F4D300BFE6E70000F9
:104600005B534F454D5D20736C6176652564206971
:104610006E7075742072617720736B69703A204EEA
:10462000554C4C0D0A0000005B534F454D5D207307
:104630006C617665256420696E707574207261778F
:10464000206C656E3D256C752065787065637465BA
:10465000643D25750D0A00005B534F454D5D207389
:104660006C617665256420696E7075745B253032E7
:104670006C755D3D3078253032580D0A0000000021
:10468000F8B506460D46144604B9F8BD34F8CA0F0D
:10469000009063882A460FA1304600F0B1FAA08846
:1046A0000090E3882A4616A1304600F0A9FA207A45
:1046B000CA3C00F0040008B11CA000E01CA000905F
:1046C000B4F8D2302A461BA1304600F099FA00BF58
:1046D000DBE700005B534F454D5D20736C617665F1
:1046E0002564206D6278206F757420616464723D6A
:1046F000307825303458206C656E3D25750D0A00E4
:104700005B534F454D5D20736C6176652564206D6C
:10471000627820696E2020616464723D30782530B3
:104720003458206C656E3D25750D0A00796573005F
:104730006E6F00005B534F454D5D20736C61766575
:104740002564206D62785F70726F746F3D307825DC
:1047500030345820436F453D25730D0A000000009A
:1047600070B506460C46154605B970BD2A2322468B
:1047700007A1304600F044FA2A462146304600F0B0
:104780001FF82A4621463046FFF7ACFE00BFECE793
:104790005B534F454D5D20547850444F2064656312
:1047A0006F64656420736C61766525642073697A33
:1047B000653D25752062797465730D0A000000005F
:1047C0002DE9FF4107460E4614460CB9BDE8FF81AE
:1047D00025882846FFF70CFE8046A08994F90E1024
:1047E0002B463246CDE9008102901749384600F049
:1047F00007FAB4F90200A168CDE9001063683246F7
:104800001249384600F0FCF9D4F811000090B4F9D0
:104810000F3032460EA1384600F0F2F9C5F3C01051
:10482000C5F3C001C5F38002C5F34003CDE90032F2
:10483000CDE9021005F0010332461449384600F074
:10484000DFF900BFC2E700004CEA0108ECEA01080A
:104850005B534F454D5D20736C6176652575204136
:104860007869733120307833313534206163636582
:104870006C3D256420307836313634206D756C748B
:10488000695F706F733D256C640D0A007CEB010855
:104890002DE9FC5F04468A461746984600200190A1
:1048A000FFF716FA05460E460022D4E900105140E3
:1048B000504001430AD0D4E90002291A66EB0200F5
:1048C000C91B70EB080001D2BDE8FC9FC4E900568B
:1048D0000DF07CFA834601A80DF094FA8146B9F1F7
:1048E000000F01D006A000E006A00090019883B25E
:1048F0005A4606A1504600F083F900BFE4E70000E5
:104900004F4B00004641494C000000005B504859A5
:104910005D206C696E6B3D2575206273723D307849
:104920002530346C5820726561643D25730D0A0092
:10493000002202604260704770B505460F4890F84B
:1049400088080D2800D170BD2A460DA1114800F03D
:1049500057F90FF0EEF8044672B60021074880F8C8
:10496000591B012180F85B1B04B962B60B210D2095
:10497000FFF718FDFFF7D6FC00BFE4E76806032445
:104980005B534F454D5D204552524F523A2025739F
:104990000D0A000000110324F0B5A3B0074617B9B3
:1049A000002023B0F0BD882101A8FCF712F90FF018
:1049B000C0F8044672B6414890F888080B280BD11D
:1049C0003E4890F8580B38B13D48406820B93D4802
:1049D000D0F8CC02032805DA00BF84F3108800BFAA
:1049E0000020DEE7002545E0681C86B206EB0610D5
:1049F00000EB4000344901EBC000406B40B106EBD6
:104A0000061000EB400001EBC000006B2A2805D027
:104A100000BF84F3108800BF0020C2E706EB061237
:104A200002EB4202284B03EBC202516BC5EBC502FD
:104A300002EB420201AB03EB42002A22FBF7E6FF46
:104A40009DF88A000121A940C9B208438DF88A0067
:104A500006EB061000EB40001B4931F83000082837
:104A600007D19DF88B000121A940C9B208438DF8F8
:104A70008B006D1C032DB7D3104890F888088DF873
:104A800082000E48D0F85C0B21900C48B0F8640B03
:104A900080B2ADF8880000BF00BF00BFBFF35F8FDA
:104AA00000BF00BF00BF00BF84F3108800BF882292
:104AB00001A93846FCF731F8012072E768060324A3
:104AC000CC1103246826022474EA0024014890F8DB
:104AD00088087047680603242DE9F0410FF029F893
:104AE000044672B62D4890F85A0B60B92B4890F8DE
:104AF0005B0B40B9294890F8880840B1274890F8E6
:104B000088080D2803D004B962B6BDE8F081002101
:104B1000224880F8591B80F85B1B04B962B61F4815
:104B200090F8580B10B11E480FF030FF1D491C487B
:104B3000FCF74FF84FF400711B48FCF74AF81B488C
:104B400000F03CFF1A4805F0EDF80021134880F80A
:104B5000581BC0F85C1BC0F8601B02F04BFD1248EC
:104B60000838FFF7E5FE1248CC3800F06BF811A1C9
:104B70000F48CC3800F044F8FFF7AAF805462A465B
:104B80000B4612A10A48CC3800F03AF815A10848A3
:104B9000CC3800F035F800BFB7E700006806032402
:104BA0006826002488E80200000F03242813032449
:104BB000CC1103240D0A5B534F454D5D20646562A3
:104BC00075672073746172740D0A00005B534F4562
:104BD0004D5D2074696D655F75733D256C6C750D59
:104BE0000A0000005B534F454D5D207761697420DA
:104BF000504859206C696E6B2075700D0A000000DA
:104C00000FB430B5B1B005460DB1359818B931B013
:104C100030BC5DF814FB36A83090C0216846309B4C
:104C2000359AFBF7F7FC044600203090002C00DC9E
:104C3000EDE7C02C00D3BF24A1B26846FEF74EFDBD
:104C400000BFE4E710B5044602492046FFF7D8FF4D
:104C500010BD000014EC010870B506460D46144660
:104C600026B11DB114B1B4F5C07F01D9002070BDCB
:104C700021462846FEF732FDF9E7000038B5054623
:104C80000C46044BA3F50A7203492846009400F031
:104C900003FA38BD28130324682600242DE9FF4FAA
:104CA00095B0064699460020149056B1169840B12A
:104CB000179830B1B9F1000F03D0D9F800000028DF
:104CC00003DC002019B0BDE8F08FE8483418DDF8A7
:104CD0005CB0D9F8000058441390D4F82801129021
:104CE0004FF0FF300990E2483044D0F88C0078B1A2
:104CF000DF493144D1F88C0017F01AF8DC48304411
:104D000080680990DA493144D1F88C0017F068F8CE
:104D10004FF0FF300890D4F8100558B1D4F81005C2
:104D200017F006F84FF4337000590890D4F81005C6
:104D300017F056F800201190D4F82C0100280ADD55
:104D4000D4F82C01C82806DCE16860680844D4F86F
:104D50002C1108441190C748805DE8BBA07ED8BBE9
:104D60002068C8BBC2483044D0F88C00A0B3D4F847
:104D7000100588B3099820282FD1089860BB608C53
:104D800003282AD1A08C032827D1D4F8280118B3EE
:104D9000D4F82C01002820DDD4F82C01C8281CDC14
:104DA00060685844E16801441298814215D1129814
:104DB000584512D3DDE9120188420ED8D4F82C21CF
:104DC000DDE91210401A824207D8D9F80010119874
:104DD000814202D1012001E0FFE700200C900C98F5
:104DE00058B34FF0000823E004F5987030F818002D
:104DF0000F900F98B8B19D48001F805B81B20F984B
:104E0000814210DB0F9800EB001000EB40004CF2E9
:104E10000C41314401EBC000D0F86801D4F82811EE
:104E20004144884202D000200C9005E008F10108BE
:104E3000D4F82C014045D7DC00BF0C9808B18EA2F5
:104E400000E08FA2A37EDDE908010BB98EA300E08C
:104E50008EA3CDE90231CDE90402A08C618CCDE9AD
:104E60000010D4F82C318A49D9F800201698FFF7A1
:104E7000C7FE0C980A904FF0010AF1E00AEB0A1005
:104E800000EB40004CF20C41314401EBC005002026
:104E90000E900D90D4F82C01002816DDD4F82C01CA
:104EA000C82812DC4FF000080BE004F5987030F8C9
:104EB0001800504503D10E98401CC0B20E9008F166
:104EC0000108D4F82C014045EFDC95F80E010428C8
:104ED0004DDC002747E005F1850000EB0710006876
:104EE000109005F1850000EB07108088012838D16B
:104EF00005F1850000EB0710807990BB05F1850076
:104F000000EB0710C07907282BD105F1850000EBD5
:104F10000710008940F60D01884222D105F1850075
:104F200000EB0710807AE0B905F1850000EB07106F
:104F3000C07A012815D105F1850000EB0710007B30
:104F400001280ED1D9F800101098814209D9D5F85E
:104F5000681110985844814203D10D98401CC0B28A
:104F60000D90781CC7B295F80E01B842B3DC95F8E5
:104F70000D0178BB95F8D20000F0040050B3B5F8ED
:104F8000CA00102827D3B5F8CA0040F2CE51884293
:104F900021DCB5F8CE0010281DD3B5F8CE0088422C
:104FA00019DCB5F8CC00A8B1B5F8D00090B1D5F8AF
:104FB000140178B9D5F8180160B9D5F8200148B9BD
:104FC00095F8240130B90E98012804D10D980128D4
:104FD00001D101E0FFE700200B900A9818B10B986F
:104FE00008B1012000E000200A900B9808B122A22D
:104FF00000E023A2D5F8140150B9D5F8180138B94A
:10500000D5F8200120B995F8240108B91AA300E0C9
:105010001BA3DDE90D10CDE90532CDE90301B5F89B
:10502000CE10B5F8CA0095F8062102F001020AB1C7
:1050300015A200E015A2CDE90020029195F8D2005A
:1050400000F0040008B10CA000E00DA00346524699
:1050500010491698FFF7D4FD0AF101001FFA80FAF3
:10506000BAF1030F7FF60AAF0A982BE6D0020200CE
:10507000002E020084E8020050415353000000005B
:105080004641494C00000000594553004E4F000076
:1050900004EF010860EF01082DE9FC4780468946CE
:1050A00016461D460A9C15B10CB1032C07D92246A1
:1050B0000AA13046FFF7A4FD0020BDE8FC87671E6B
:1050C000009440F20530784305EB800332464946B0
:1050D0004046019400F00EFEEFE700005B534F45A1
:1050E0004D5D20504F32534F20756E6D616E61677C
:1050F000656420736C6176652575204641494C0DC9
:105100000A0000002DE9F0470446894634B1B9F1A0
:10511000000F03D04D480059032802DA0620BDE8ED
:10512000F087012620E006EB061000EB40004CF271
:105130000C41214401EBC005D5F8680158B1D5F800
:10514000140140B9D5F8180128B9D5F8200110B9D3
:1051500095F8240130B132463DA14846FFF750FD95
:105160000620DCE7701C86B2032EDCD9012669E03C
:105170003146204616F0C6F8804606EB061000EBD6
:1051800040004CF20C41214401EBC005B8F1010F85
:105190000BD1D5F81401012807D1D5F82001012839
:1051A00003D195F82401002845D0012739E00020DB
:1051B00007EB071101EB41014CF20C42224402EBD8
:1051C000C101C1F8140107EB071101EB41014CF2D9
:1051D0000C42224402EBC101C1F8180107EB071190
:1051E00001EB41014CF20C42224402EBC101A1F857
:1051F0001C0107EB071101EB41014CF20C42224468
:1052000002EBC101C1F8200107EB071101EB4101DD
:105210004CF20C42224402EBC10181F82401781CBB
:1052200087B2032FC3D94346324616A14846FFF73B
:10523000E7FC062073E7324621A14846FFF7E0FC71
:10524000701C86B2032E93D9002068E7CC020200BE
:105250005B534F454D5D206379636C6963204D421C
:105260005820656E61626C65207072656368656365
:105270006B20736C6176652575204641494C0D0A9B
:10528000000000005B534F454D5D206379636C69FE
:1052900063204D425820656E61626C6520736C61BD
:1052A00076652575207265743D2564204641494C1C
:1052B0002C20726F6C6C6564206261636B0D0A0058
:1052C0005B534F454D5D206379636C6963204D42AC
:1052D0005820656E61626C6520736C61766525751A
:1052E00020504153530D0A002DE9F04786B0074680
:1052F000894692461D462868002804DD28685045E6
:1053000001D8012000E0002028712A20009028798F
:1053100008B141A000E042A0024616234249484697
:10532000FFF76EFC4FF0000870E008F1010086B254
:1053300008EB4801681D00EB410406EB061000EB8A
:1053400040004CF20C41394401EBC000406A08B106
:10535000012000E00020A07006EB061000EB4000EA
:105360004CF20C41394401EBC000406B08B1012004
:1053700000E00020E07006EB061000EB40004CF26D
:105380000C41394401EBC000006A162801D101200C
:1053900000E00020207106EB061000EB40004CF20C
:1053A0000C41394401EBC000006B2A2801D10120D7
:1053B00000E000206071607908B117A000E018A03B
:1053C000217909B114A100E015A1E2780AB112A275
:1053D00000E013A2A3780BB10FA300E010A3CDE966
:1053E0000132CDE90310607808B10BA000E00CA0F9
:1053F0000090207808B108A000E009A003463246DA
:105400000A494846FFF7FCFB08F10108B8F1030F11
:105410008BD306B0BDE8F087504153530000000025
:105420004641494C00000000C0EF0108A8EE010809
:105430002DE9F04188B004460E4690461D460E9F69
:105440002148005903280ADA1F48025903231FA1E3
:105450003046FFF7D5FB032008B0BDE8F0813946A0
:105460002846FBF794FB182102A8FBF7B2FB02A821
:105470002B46424631460090204600F037FB02ABF7
:105480003A463146204600F08BF802AB3A463146A8
:105490002046FFF729FF02A800F062F828B916A1FC
:1054A0003046FFF7ADFB0420D6E702AB2A46314673
:1054B0002046FFF7F3FB28B91AA13046FFF7A0FBFF
:1054C0000520C9E70020C7E7CC0202005B534F4527
:1054D0004D5D20494F6D617020736B69703A207388
:1054E0006C617665636F756E743D2564206E6565CD
:1054F000643D25750D0A00005B534F454D5D2053FB
:105500004146452D4F5020736B69703A20494F6DCD
:10551000617020636865636B206661696C65640D0A
:105520000A0000005B534F454D5D20534146452D19
:105530004F5020736B69703A206379636C69632004
:105540006D61696C626F78207072657265717569E2
:105550007369746573206661696C65640D0A000087
:1055600010B50346187908B9002010BD002213E0D9
:1055700002EB4204581D00EB4401087848B148781A
:1055800038B1887828B1C87818B1087908B1487955
:1055900008B90020E9E7521C032AE9D30120E4E717
:1055A0002DE9FE4F04460F46904699464FF0000AFB
:1055B00043463AA13846D9F80020FFF721FB40487E
:1055C0002044808C3E492144498CCDE900103C4860
:1055D0002044C3683A4820443AA142683846FFF75D
:1055E0000FFB3748204403693548204444A18268B2
:1055F0003846FFF705FB00264CE0701C85B205EB32
:10560000051000EB40004CF20C41214401EBC000BE
:10561000406B009005EB051000EB40004CF20C4194
:10562000214401EBC0002A4641A1436A3846FFF7F6
:10563000E7FA05EB051000EB40004CF20C41214469
:1056400001EBC000006B05EB051101EB41014CF2D1
:105650000C42224402EBC101C98D05EB051202EB9D
:1056600042024CF20C43234403EBC202126ACDE91E
:105670000021029005EB051000EB40004CF20C41BC
:10568000214401EBC000838B2A4635A13846FFF741
:10569000B7FA761C032EB0D3BDE8FE8F5B534F459F
:1056A0004D5D20494F6D61702073697A653D2564B9
:1056B000206275666665723D25750D0A0000000062
:1056C000D00202005B534F454D5D2067726F7570CD
:1056D00030204F62797465733D256C75204962797D
:1056E0007465733D256C75206F7574574B433D256C
:1056F0007520696E574B433D25750D0A000000006B
:105700005B534F454D5D2067726F757030206F752C
:1057100074707574733D30782530386C5820696E1C
:10572000707574733D30782530386C580D0A000060
:105730005B534F454D5D20736C6176652575206F19
:105740007574707574733D30782530386C582069E5
:105750006E707574733D30782530386C580D0A00C2
:105760005B534F454D5D20736C6176652575204F09
:10577000626974733D256C75204F62797465733D61
:10578000256C752049626974733D256C75204962EA
:10579000797465733D256C750D0A00002DE9F84399
:1057A00006460F46904623488059032809DA2148C7
:1057B0008259032320A13846FFF722FA0120BDE8D1
:1057C000F883012416E004EB041000EB40004CF2D7
:1057D0000C41314401EBC00090F8D20000F004000D
:1057E00030B9224620A13846FFF70AFA0220E6E740
:1057F000601C84B2032CE6D93846FFF723FA002553
:1058000013E0681C84B2224622A13846FFF7F8F95B
:1058100030A0009040F20530684308EB8002234638
:105820003946304600F05AFB6D1C032DE9D30020A9
:10583000C5E70000CC0202005B534F454D5D205090
:10584000444F2061737369676E20736B69703A20EF
:10585000736C617665636F756E743D2564206E654B
:1058600065643D25750D0A005B534F454D5D205025
:10587000444F2061737369676E20736B69703A20BF
:10588000736C6176652575206E6F20436F450D0A38
:10589000000000005B534F454D5D2050444F206198
:1058A000737369676E6D656E74206265666F72658D
:1058B000206578706C6963697420504F32534F20B3
:1058C000636F6E66696720736C61766525750D0A76
:1058D000000000006265666F726520504F32534FC2
:1058E000000000002DE9F04104460F46164624B1A1
:1058F0001EB11448005903280CDA14B1114800599C
:1059000000E00020024603230FA13846FFF778F994
:10591000BDE8F081012511E005EB051000EB40002A
:105920004CF20C41214401EBC000C0F810612A4642
:1059300014A13846FFF764F9681C85B2032DEBD932
:1059400000BFE5E7CC0202005B534F454D5D2050A0
:105950004F32534F2063616C6C6261636B207265E0
:10596000676973746572204641494C20736C617697
:1059700065636F756E743D2564206E6565643D25B5
:10598000750D0A005B534F454D5D206578706C695D
:1059900063697420504F32534F2050444F2063614D
:1059A0006C6C6261636B20726567697374657265A4
:1059B0006420736C61766525750D0A0070B5054627
:1059C000002407E040F20531614305EB810000F05F
:1059D0002DFD641C032CF5D370BD70B50546002465
:1059E00007E040F20531614305EB810000F026FD40
:1059F000641C032CF5D370BD0146072911D2DFE8E2
:105A000001F0110406080A0C0E0007A070470EA052
:105A1000FCE714A0FAE718A0F8E71CA0F6E724A01A
:105A2000F4E700BF2AA0F1E750444F206173736987
:105A3000676E6D656E7420736C617665206D697339
:105A400073696E670000000050444F2061737369F2
:105A5000676E6D656E74207265717569726573200D
:105A6000436F4500494F6D617020736C617665200E
:105A70006D697373696E6700494F6D61702063686B
:105A800065636B206661696C656400006379636CB3
:105A90006963206D61696C626F78207072657265F0
:105AA0007175697369746573206661696C656400FA
:105AB0006379636C6963206D61696C626F782065DE
:105AC0006E61626C65206661696C6564000000004F
:105AD00050444F20636F6E66696775726174696FB9
